:020000040800F2
:10000000101E0020A1010008DB1800080D120008D6
:1000100085140008010900083B4A000800000000A0
:10002000000000000000000000000000C5240008DF
:10003000D10D000800000000D5210008A12F000804
:10004000BB010008BB010008BB010008BB010008A0
:10005000BB010008BB010008BB010008BB01000890
:10006000BB010008BB010008BB010008BB01000880
:10007000BB010008BB010008BB010008BB01000870
:1000800005090008BB010008BB010008BB0100080E
:10009000BB010008BB010008BB010008BB01000850
:1000A000BB010008BB010008BB010008BB01000840
:1000B000DB3F0008F53F00080D400008BB010008C9
:1000C000BB010008BB010008BB010008BB01000820
:1000D000BB01000865460008ED460008BB010008AA
:1000E000BB010008BB010008BB010008BB01000800
:1000F000BB010008BB010008BB010008BB010008F0
:10010000BB010008BB01000825400008BB01000836
:1001100001460008BB0100083D400008BB01000883
:10012000BB010008BB010008BB010008BB010008BF
:10013000BB010008BB010008BB010008BB010008AF
:10014000BB010008BB010008BB010008BB0100089F
:10015000BB010008BB010008650A0008BB010008DC
:10016000BB010008BB010008BB010008BB0100087F
:10017000BB010008BB010008BB010008BB0100086F
:10018000BB010008BB010008DFF810D000F018FB2D
:1001900000480047E15B0008AFF30080101E00201C
:1001A0000648804706480047FEE7FEE7FEE7FEE711
:1001B000FEE7FEE7FEE7FEE7FEE7FEE7A52F000805
:1001C00089010008D2B201E000F8012B491EFBD2E0
:1001D00070470022F6E710B513460A460446194652
:1001E000FFF7F0FF204610BD2DE9FE4F81EA030422
:1001F00004F0004421F0004100944FF0000B23F084
:10020000004350EA01045ED052EA03045BD0C3F31A
:100210000A54C1F30A552C44A4F2F3340194A0FB10
:100220000254C1F3130141F48011C3F3130343F4E7
:10023000801301FB024400FB034E840A970A44EA40
:10024000815447EA8357A4FB076802958D0A05FB92
:1002500007854FEA932C04FB0C542705029D4FEAB7
:10026000065847EA1637B5EB08056EEB070C870E04
:10027000920E47EA811742EA8312A7FB0201B6EB0E
:100280000B0164EB00042B0D43EA0C335E1844EBC6
:100290001C50DA465146E7FB0201C5F313044FEA4E
:1002A0000B3343EA14534FEA0432019C43EA06033A
:1002B000A4F10C040294009CCDE900B400F073F9A1
:1002C00003B0BDE8F08F00200146F9E72DE9F04DBD
:1002D00081EA030404F0004B21F0004514464FF07E
:1002E000000A23F0004150EA050220D054EA01023E
:1002F0001DD0C5F30A570246C5F31303C1F313001B
:10030000C1F30A5640F4801543F48013A7EB0608A6
:10031000101BD64608F2FD3873EB050002D308F136
:10032000010801E092185B41B8F1000F03DA0020E8
:100330000146BDE8F08D00204FF48011064684464A
:100340000EE0171B73EB050705D3121B63EB0503C8
:1003500006434CEA010C49084FEA300092185B4111
:1003600050EA0107EDD152EA030012D082EA0400FC
:1003700083EA0501084305D0101BAB4106D20122D8
:10038000002306E000224FF0004302E06FF001027C
:1003900053101AEB06004CEB085110EB0A0041EB2E
:1003A0000B01BDE8F04D00F0EFB80EB5C10F80EACB
:1003B000E0700844CA07002140F233438DE80E0084
:1003C0000A460B4600F0EFF803B000BD00F0004213
:1003D00030F000400AD0C10D01F56071C0F3160085
:1003E00042EA0151C208400711437047002001460C
:1003F0007047000030B5041E71F1000404DB4FF0BB
:100400000044404264EB0101141E73F1000405DB5B
:100410001C464FF00043524263EB04038B4208BF7B
:10042000824230BD30B5041E71F1000404DB4FF090
:100430000044404264EB0101141E73F1000405DB2B
:100440001C464FF00043524263EB0403994208BF3D
:10045000904230BD01F0004330B421F0004150EA39
:10046000010206D00A0DA2F56072C1F31301002A41
:1004700002DC30BC00207047440F44EAC104C100D4
:10048000E01830BC00EBC25000F047B830B50B4666
:10049000014600202022012409E021FA02F59D42B4
:1004A00005D303FA02F5491B04FA02F52844151E88
:1004B000A2F10102F1DC30BD2DE9F05F054600201C
:1004C00092469B4688460646814640241BE02846C5
:1004D00041464746224600F094F953465A46C01A10
:1004E000914110D311461846224600F07BF92D1A8F
:1004F00067EB01084F4622460120002100F072F907
:1005000017EB00094E41201EA4F10104DFDC484630
:1005100031462A464346BDE8F09F0029A8BF7047F0
:10052000401C490008BF20F00100704710B4B0FA29
:1005300080FC00FA0CF050EA010404BF10BC7047C4
:1005400049B1CCF1200421FA04F411FA0CF118BFDE
:10055000012121430843A3EB0C01CB1D4FEA0061AD
:100560004FEA102042BF002010BC704700EBC35080
:1005700010440029A4BF10BC7047401C490008BFAC
:1005800020F0010010BC704710B5141E73F1000478
:1005900008DA401C41F1000192185B411A4301D175
:1005A00020F0010010BD2DE9F04D92469B4611B19F
:1005B000B1FA81F202E0B0FA80F22032904600F007
:1005C00011F904460F4640EA0A0041EA0B0153467E
:1005D0005A46084313D0114653EA010019D0C8F116
:1005E0004002504600F00DF905460E465046594669
:1005F000424600F0F7F8084305D0012004E0204609
:100600003946BDE8F08D0020054346EAE0762C43EC
:1006100037430A986305E40AA0EB08000022FD0AAC
:1006200044EA47540A3002D500200146E9E70105B3
:1006300010196941DDE9084500196941BDE8F04D2F
:10064000A2E72DE9FE4F804681EA0300C00F0C4669
:10065000009021F0004123F00045B8EB0200A941D1
:1006600005D24046214690461C460B46024623F0E2
:100670000040104347D0270DC7F30A00C3F30A51C7
:100680000290401A019040286BDAC3F3130040F443
:10069000801B0098924620B10023D2EB030A63EB43
:1006A0000B0B01985946C0F14002504600F09AF8F1
:1006B00006460D4650465946019A00F0B2F810EB36
:1006C00008006141002487EA115284EAE7731A4363
:1006D00040D0009A62B3019A012A4FEA075215DC12
:1006E000001B61EB02014FF0004202EA0752CDE924
:1006F0000042001C41F5801132462B46FFF753FFA4
:1007000003B0BDE8F08F40462146F9E7001B61EBDE
:100710000201001C41F5801300185B412018A2F56E
:10072000001747EB030140EAD570B6196D4111E09F
:100730006D084FEA360645EAC0754FEA0752001BBE
:1007400061EB0201001C41F5801149084FEA3000BD
:100750000019514132462B4603B0BDE8F04FFFF778
:1007600013BF0098012240000023D0EB020263EB8C
:10077000E073009821464FEAE074B8EB000061EBAB
:100780000401E9E783F000435BE781F0004158E7AB
:10079000C1F30A52C1F3130140F2FF3341F4801157
:1007A0009A4202DA00200146704740F233439A42EF
:1007B000A2F2334202DC524200F023B800F012B839
:1007C000064C074D06E0E06840F0010394E807009E
:1007D00098471034AC42F6D3FFF7DAFC505D0008BE
:1007E000705D0008202A04DB203A00FA02F10020A4
:1007F00070479140C2F1200320FA03F3194390405F
:100800007047202A04DB203A21FA02F000217047C9
:1008100021FA02F3D040C2F1200291400843194668
:100820007047202A06DBCB17203A41FA02F043EA50
:10083000E07306E041FA02F3D040C2F12002914099
:1008400008431946704770B58C1810F8015B15F015
:10085000070301D110F8013B2A1106D110F8012B32
:1008600003E010F8016B01F8016B5B1EF9D12B0757
:1008700005D40023521E0DD401F8013BFAE710F80D
:10088000013BCB1A921C03E013F8015B01F8015BFA
:10089000521EF9D5A142D8D3002070BD10B54FF437
:1008A000A06001F057F8A82005F07CF804F0FEF8ED
:1008B00003F000FC052005F093F80EA004F00CFCFA
:1008C00000F036FD00F0A4FC04F024F94FF41650BB
:1008D00001F082FC01F060F800F036FF00F0D4FD7A
:1008E00000F077FA03F01AF9012002F06BF901F039
:1008F00077F910BD5553415254204F4B0D0A00005B
:1009000000BFFEE710B52DED048B00244848446875
:1009100048494748883000F0DDF9002861D0464951
:100920004348883000F0BEF842494148883000F022
:10093000D3F842480078552876D14048407853286B
:1009400072D13E48407A3D49097A08443B49C97909
:1009500008443A498979084438494979084437496B
:10096000097908443549C9780844344989780844E4
:100970003249497808443149097808442F490870B8
:100980000846807A097888424ED12D480088401C5C
:100990002B49088001202B49087000202749487006
:1009A0002948007801281DD1097A244AD27941EAE0
:1009B000022108B2FFF7F9FC41EC190B9FED230B64
:1009C00053EC102BFFF782FC41EC180B9FED210B31
:1009D00053EC102BFFF708FC204A03C202201A49EF
:1009E000087021E01848007802281DD11349097ABF
:1009F000124AD27941EA022108B2FFF7D6FC41EC53
:100A0000190B9FED120B53EC102BFFF75FFC41EC21
:100A1000180B9FED100B53EC102BFFF7E5FB104A62
:100A200003C2012008490870BDEC048B10BD000012
:100A3000006002400088002000080020D41300203D
:100A4000E0000020E2000020CA00002000000000BA
:100A50000000E0400000000000806640D800002058
:100A6000D000002010B50C490C4800F033F990B1CB
:100A70004FF02051094800F00BF940B14FF02051E0
:100A8000064800F00FF80020054981F802080249E5
:100A9000024800F021F810BD00800028B864024030
:100AA000EC0200200246094B9A4201D2084801E0BC
:100AB0000648103801F000531BB1064B0B40C360D1
:100AC00002E0044B0B40836070470000106402405A
:100AD000006002407D0F7D0F0246094B9A4201D211
:100AE000084801E00648103801F000531BB1064BDE
:100AF0000B40C36002E0044B0B4083607047000072
:100B000010640240006002407D0F7D0F21B1026839
:100B100042F00102026003E0026822F0010202607A
:100B200070470000016821F00101016000210160AF
:100B300041608160C1600161212141614A4988426F
:100B400004D13D21484A103A91608CE04649183161
:100B5000884205D14FF47461434A103A916082E0B3
:100B600041493031884205D14FF474113E4A103A60
:100B7000916078E03C494831884205D14FF074617A
:100B8000394A103A91606EE037496031884204D1A9
:100B90003649354A103AD16065E0334978318842A8
:100BA00004D13349304A103AD1605CE02E4990318B
:100BB000884204D12F492C4A103AD16053E02A4987
:100BC000A831884205D14FF03D51274A103AD160F3
:100BD00049E02949884204D13D21274A083A116059
:100BE00041E025491831884205D14FF47461224A09
:100BF000083A116037E020493031884205D14FF47E
:100C000074111D4A083A11602DE01B494831884291
:100C100005D14FF07461184A083A116023E0164973
:100C20006031884204D11149134A121F11601AE041
:100C300011497831884204D10D490F4A121F1160C1
:100C400011E00D499031884204D10A490A4A121F25
:100C5000116008E00849A831884204D14FF03D51A5
:100C6000054A121F11607047106002403D000020CD
:100C7000400F002000003D2010640240014600208B
:100C80000A6802F001020AB1012000E0002070476A
:100C900030B503460A46002000240B4DAB4201D27A
:100CA0000A4901E00849103902F000550DB14C68BD
:100CB00000E00C68064D2C4004EA02050DB101204D
:100CC00000E0002030BD00001064024000600240DF
:100CD0007D0F7D0F70B50246002000240025124EC6
:100CE000B24201D2114B01E00F4B103B104E0E40AF
:100CF00036B11E2606EAD124166806EA040502E08B
:100D0000566906F0800501F000560EB15C6800E0FF
:100D10001C68084E344004EA010616B10DB10120EA
:100D200000E0002070BD000010640240006002403E
:100D30003C0F3C0F7D0F7D0F10B501F080034BB1D0
:100D400022B1436943F08003436103E0436923F028
:100D50008003436180290BD02AB1036801F01E048F
:100D60002343036004E0036801F01E04A34303600F
:100D700010BD000010B500220268134B1A40CC6869
:100D80000B6823434C6923438C692343CC69234379
:100D90000C6A23434C6A23438C6A23434C6B2343E2
:100DA0008C6B23431A430260426922F00702D1E9A7
:100DB0000B3423431A4342610B6943604B688360E1
:100DC0008B68C36010BD00003F801CF0416070471D
:100DD000704710B500F008F800F080F800F0DEF879
:100DE00000F03CF910BD000000B589B001210846B3
:100DF00001F058FA0121084601F044FA01210220CD
:100E000001F040FA4FF40040019002208DF80800F4
:100E100001208DF80A0003208DF8090001208DF8CB
:100E20000B0001A92B4800F079F90820019002205D
:100E30008DF8080001208DF80A0003208DF80900C4
:100E400001208DF80B0001A9234800F067F9012269
:100E50000F21204800F0AAF9012203211E4800F0CA
:100E6000A5F906A803F0C2FB0020ADF818004FF664
:100E7000FF7007900020ADF82000ADF81A0006A919
:100E80004FF0804003F070FB00231A4603214FF01F
:100E9000804003F06CF903A803F0D2F90020ADF80C
:100EA000140003A94FF0804003F093F90121880753
:100EB00003F03CF901221146900703F0CAF9002122
:100EC0004FF0804003F021FB0121880703F034F943
:100ED00009B000BD000002400004024000B589B026
:100EE0000121022001F0DEF90121084601F0CAF9D2
:100EF000C020019002208DF8080001208DF80A0022
:100F000003208DF8090001208DF80B0001A921486C
:100F100000F004F9022206211E4800F047F90222DF
:100F200007211C4800F042F906A803F05FFB0020EF
:100F3000ADF818004FF6FF7007900020ADF82000C4
:100F4000ADF81A0006A9144803F00EFB00231A4658
:100F50000321114803F00BF903A803F071F90020F5
:100F6000ADF8140003A90C4803F033F901210A4835
:100F700003F0DCF801221146074803F06AF900216A
:100F8000054803F0C2FA0121034803F0D5F809B07F
:100F900000BD0000000002400004004000B589B020
:100FA0000121042001F07EF90121022001F06AF9FB
:100FB000C020019002208DF8080001208DF80A0061
:100FC00003208DF8090001208DF80B0001A92148AC
:100FD00000F0A4F8022206211E4800F0E7F80222E1
:100FE00007211C4800F0E2F806A803F0FFFA0020F1
:100FF000ADF818004FF6FF7007900020ADF8200004
:10100000ADF81A0006A9144803F0AEFA00231A46F8
:101010000321114803F0ABF803A803F011F90020F5
:10102000ADF8140003A90C4803F0D3F801210A48D5
:1010300003F07CF801221146074803F00AF9002169
:10104000054803F062FA0121034803F075F809B07E
:1010500000BD0000000402400008004000B589B057
:101060000121082001F01EF90121084601F00AF9CA
:101070000320019002208DF8080001208DF80A005D
:1010800003208DF8090001208DF80B0001A92148EB
:1010900000F044F8022200211E4800F087F80222E6
:1010A00001211C4800F082F806A803F09FFA0020F6
:1010B000ADF818004FF6FF7007900020ADF8200043
:1010C000ADF81A0006A9144803F04EFA00231A4698
:1010D0000321114803F04BF803A803F0B1F80020F6
:1010E000ADF8140003A90C4803F073F801210A4875
:1010F00003F01CF801221146074803F0AAF800216A
:10110000054803F002FA0121034803F015F809B07D
:1011100000BD000000000240000C0040F0B50A468F
:1011200000210023002400BF3DE0012505FA01F362
:10113000156805EA03049C4234D105684F00032674
:10114000BE40B543056015794E00B540066835438D
:1011500005601579012D02D01579022D16D185680B
:101160004F000326BE40B543856055794E00B5401B
:10117000866835438560456801268E40B5434560E5
:10118000456896798E40B6B235434560C5684F00D4
:101190000326BE40B543C560D5794E00B540C6684C
:1011A0003543C560491C1029BFD3F0BDF0B50023FD
:1011B00000244D07ED0E02FA05F3CE1000F12005D4
:1011C00055F826504E07F70E0F26BE40B543CF10F8
:1011D00000F1200646F82750CE1000F1200555F802
:1011E000265045EA0304CE1000F1200545F82640BC
:1011F000F0BD0246002013690B400BB1012000E056
:1012000000207047418370470183704700BFFEE7AD
:101210001CB50121112001F035F8182000900020A4
:101220008DF8040003208DF8050001208DF80700DB
:1012300069460648FFF772FF0120009002208DF8F2
:10124000070069460248FFF769FF1CBD0010024015
:101250000000024010B5044614B101202349087073
:101260002248007858B310212148FFF7C2FF50B13F
:1012700008211F48FFF7BDFF28B101211D48FFF7D6
:10128000B8FF01281BD10A2004F0AAFB002017494F
:10129000087010211648FFF7ACFF08B9012010BDF7
:1012A00008211348FFF7A5FF08B90220F7E701213D
:1012B0001048FFF79EFF012815D10420EFE7102109
:1012C0000B48FFF796FF01280DD108210848FFF7CA
:1012D00090FF012807D101210648FFF78AFF10B9C6
:1012E0000120024908700020D9E700009A00002080
:1012F000001002400000024010B5002408E00A205F
:1013000004F06EFB601C80B20446142800D1002457
:101310000120FFF79FFF0128F1D102E00A2004F02D
:101320005FFB0120FFF796FF0128F7D010BD0000FA
:101330001CB50121084600F0A5FFC0200090012047
:101340008DF8040000208DF8060003208DF80500BC
:1013500001208DF8070069460348FFF7DFFEC02132
:101360000148FFF751FF1CBD00000240014890ED0D
:10137000000A7047E80000200548007808B1012005
:1013800070470348007808B90020F9E70020F7E724
:10139000E200002070B52DED048BB2B0C821684684
:1013A000FEF717FF0026002400250FE031480078E3
:1013B000012808D101F058F8684600EB860080ED5E
:1013C000000A701CC6B2322E00DB00E0EEE700BF60
:1013D000002423E0601CC5B21AE0684600EB8400DC
:1013E00090ED000A684600EB8500D0ED000AB4EEEF
:1013F000E00AF1EE10FA09D2684600EB850090EDA4
:10140000000A684600EB840080ED000A681CC5B243
:10141000C4F13200A842E0DC601CC4B2322CD9DB3B
:1014200009240CE09DED000A684600EB8400D0ED35
:10143000000A30EE200A8DED000A601CC4B2282C90
:10144000F0DB9DED000A10EE101A0846FEF7BEFF15
:1014500041EC190B9FED080B53EC102BFEF736FFF8
:1014600041EC180BFEF7F6FF0549086032B0BDEC01
:10147000048B70BDE20000200000000000003E4030
:10148000E800002000BFFEE700B58BB0012102207C
:1014900000F018FF0121042000F0F4FE03220621D1
:1014A0003748FFF783FE032207213548FFF77EFE0A
:1014B000032208213248FFF779FE03220921304830
:1014C000FFF774FE4FF47070099002208DF8280029
:1014D00000208DF82A0003208DF8290001208DF8C6
:1014E0002B0009A92648FFF719FE1420ADF81800B3
:1014F0000020ADF81A0040F2CF7007900020ADF840
:10150000200006A91F4803F02FF86020ADF8040062
:101510000120ADF8060000200390ADF81000ADF8F2
:101520001400039001A9174802F09CFE01A9154878
:1015300002F0E0FE01A9134802F03CFF01A91148A6
:1015400002F092FF08210F4802F0CAFE08210D4860
:1015500002F022FF08210B4802F07CFF0821094815
:1015600002F0BEFF0121074802F0D4FD0121054829
:1015700002F0E2FD0121034802F0EAFD0BB000BDDC
:1015800000080240000401402DE9F04104460D46E8
:1015900016461F4634B1012C0FD0022C18D0032C54
:1015A0002CD120E04FF400716548FFF72BFE4FF47B
:1015B00080616348FFF726FE20E04FF40071604829
:1015C000FFF722FE4FF480615D48FFF71BFE15E038
:1015D0004FF400715A48FFF715FE4FF480615848E8
:1015E000FFF712FE0AE04FF400715548FFF70CFEBA
:1015F0004FF480615248FFF707FE00BF00BF35B1CE
:10160000012D0FD0022D18D0032D2CD120E04FF446
:1016100000614B48FFF7F6FD4FF480514848FFF753
:10162000F1FD20E04FF400614548FFF7EDFD4FF478
:1016300080514348FFF7E6FD15E04FF40061404854
:10164000FFF7E0FD4FF480513D48FFF7DDFD0AE074
:101650004FF400613A48FFF7D7FD4FF48051384806
:10166000FFF7D2FD00BF00BF36B1012E0FD0022E12
:1016700018D0032E2CD120E04FF400513048FFF752
:10168000C1FD4FF480412E48FFF7BCFD20E04FF430
:1016900000512B48FFF7B8FD4FF480412848FFF771
:1016A000B1FD15E04FF400512548FFF7ABFD4FF4B5
:1016B00080412348FFF7A8FD0AE04FF4005120487D
:1016C000FFF7A2FD4FF480411D48FFF79DFD00BFCD
:1016D00000BF37B1012F0FD0022F18D0032F2CD10C
:1016E00020E04FF400411648FFF78CFD4FF4806175
:1016F0001448FFF787FD20E04FF400411048FFF742
:1017000083FD4FF480610F48FFF77CFD15E04FF437
:1017100000410B48FFF776FD4FF480610948FFF761
:1017200073FD0AE04FF400410548FFF76DFD4FF4EB
:1017300080610448FFF768FD00BF00BFBDE8F0818D
:1017400000100240000402401CB50121102000F0EE
:1017500099FD0121022000F095FD4FF4C06000903A
:1017600001208DF804008DF8070000208DF8060098
:1017700003208DF8050069462F48FFF7CFFC4FF492
:10178000C050009001208DF804008DF80700002063
:101790008DF8060003208DF8050069462648FFF7FE
:1017A000BDFC4FF4C040009001208DF804008DF87E
:1017B000070000208DF8060003208DF8050069461B
:1017C0001D48FFF7ABFC4FF40040009001208DF85E
:1017D00004008DF8070000208DF8060003208DF826
:1017E000050069461448FFF799FC4FF480600090AB
:1017F00001208DF804008DF8070000208DF8060008
:1018000003208DF8050069460C48FFF787FC01208E
:101810000B4908600B49C1F8A80209490831086062
:10182000091D0860091D0860091D0860091D086080
:101830000549C1F8A8021CBD001002400004024086
:10184000A402424200004242008040422DE9F041A1
:1018500004460F4615461E46B4F5FA6F01DB4FF4F9
:10186000FA64B7F5FA6F01DB4FF4FA67B5F5FA6F72
:1018700001DB4FF4FA65B6F5FA6F01DB4FF4FA6657
:10188000002C00DA0024002F00DA0027002D00DAF7
:101890000025002E00DA00262146084802F02DFE21
:1018A0003946064802F02BFE2946044802F029FE7C
:1018B0003146024802F027FEBDE8F08100040140F5
:1018C000F0EE400AF5EEC00AF1EE10FA02D2B1EEE7
:1018D000600A01E0B0EE600A7047704770B5002101
:1018E00000230F22C4781CB3174C246804F4E0646E
:1018F000C4F5E064C4F30721C1F10404E3B20A4172
:1019000044789C40E1B28478144021430C07210EB6
:101910000E4C05786155047804F01F050124AC4095
:1019200005786D11AD0005F1E025C5F8004109E02D
:10193000047804F01F050124AC40054D06787611AB
:1019400045F8264070BD00000CED00E000E400E02A
:1019500080E100E002490143024A11607047000043
:101960000000FA050CED00E070B500240CE0002545
:1019700006E00020074901EBC5010855681CC5B207
:10198000802DF6DB601CC4B2082CF0DB00F0C4F83C
:1019900070BD00008A1500201CB50121132000F045
:1019A00071FC1020009001208DF8040000208DF8BB
:1019B000060003208DF8050001208DF80700694618
:1019C0005248FFF7ABFB4FF44070009001208DF8B8
:1019D000040000208DF8060003208DF8050001208A
:1019E0008DF8070069464A48FFF798FB03200090EE
:1019F00001208DF8040000208DF8060003208DF8EA
:101A0000050001208DF8070069464248FFF786FB74
:101A100010213E48FFF7F6FBC82003F0E1FF10213C
:101A20003A48FFF7F1FB0021AE2000F09BF80021BF
:101A3000084600F097F80021102000F093F80021EC
:101A4000402000F08FF80021812000F08BF8002169
:101A5000CF2000F087F80021A12000F083F80021BA
:101A6000C82000F07FF80021A62000F07BF80021BC
:101A7000A82000F077F800213F2000F073F8002143
:101A8000D32000F06FF80021084600F06BF8002129
:101A9000D52000F067F80021802000F063F80021D5
:101AA000D92000F05FF80021F12000F05BF8002160
:101AB000DA2000F057F80021122000F053F800213E
:101AC000DB2000F04FF80021402000F04BF800210F
:101AD000202000F047F80021022000F043F8002108
:101AE0008D2000F03FF80021142000F03BF8002189
:101AF000A42000F037F80021A62000F033F80021E0
:101B0000AF2000F02FF8FFF72FFF1CBD00000240B0
:101B1000000402400010024070B500241CE004F1F3
:101B2000B001C8B2002100F01DF80021084600F005
:101B300019F80021102000F015F8002508E00849E8
:101B400001EBC501085D012100F00CF8681CC5B26D
:101B5000802DF4DB601CC4B2082CE0DB70BD0000FB
:101B60008A15002070B504460E4626B102211A4897
:101B7000FFF74AFB03E002211748FFF743FB01216F
:101B80001548FFF73FFB00251BE04FF48071134819
:101B9000FFF738FB04F0800028B14FF400710F48C4
:101BA000FFF732FB04E04FF400710C48FFF72AFB0B
:101BB0004FF480710948FFF727FB6006040E681C8C
:101BC000C5B2082DE1DB01210348FFF71DFB02210F
:101BD0000148FFF719FB70BD0010024000040240ED
:101BE00010B5484800F0A2F8474800F09FF8474871
:101BF00000F09CF8464800F099F89FED460A4148ED
:101C000080ED000A9FED440A80ED010A9FED420A33
:101C100080ED020A9FED400A80ED0E0A9FED3F0A1B
:101C200080ED0F0AB1EE040A80ED110A9FED3C0A27
:101C300080ED120A9FED3B0A80ED130A9FED3A0AF0
:101C4000314880ED000A9FED340A80ED010A9FEDD6
:101C5000320A80ED020A9FED300A80ED0E0A9FEDF8
:101C60002F0A80ED0F0AB1EE040A80ED110A9FEDF4
:101C70002C0A80ED120A9FED2B0A80ED130A9FEDCE
:101C80002A0A224880ED000A9FED230A80ED010A0E
:101C90009FED210A80ED020A9FED1F0A80ED0E0ADA
:101CA0009FED1E0A80ED0F0AB1EE040A80ED110AC5
:101CB0009FED1B0A80ED120A9FED1A0A80ED130AB0
:101CC0009FED190A124880ED000A9FED130A80ED7E
:101CD000010A9FED110A80ED020A9FED0F0A80EDC7
:101CE0000E0A9FED0E0A80ED0F0AB1EE040A80ED98
:101CF000110A9FED0B0A80ED120A9FED0A0A80ED92
:101D0000130A10BD58010020AC0100200002002081
:101D1000540200200AD7A33D0000000000009643B3
:101D2000000043450000B4426F12833B9FED260A3A
:101D3000243000ED090A9FED240A00ED080A9FED0A
:101D4000220A00ED070A9FED200A00ED060A9FED2A
:101D50001E0A00ED050A9FED1C0A00ED040A9FED26
:101D60001A0A00ED030A9FED180A00ED020A9FED22
:101D7000160A00ED010A9FED140A80ED000A9FED9E
:101D8000120A80ED010A002101729FED0F0A80ED19
:101D9000030A9FED0D0A80ED040A0121017700215D
:101DA00041779FED090A80ED080A9FED080A80ED52
:101DB000090A9FED060A80ED0A0A9FED040A80EDEC
:101DC0000B0A243870470000000000000000FA44AD
:101DD00090ED010AD0ED030A20EE200AD0ED030AAF
:101DE00090ED041A70EEC10A90ED001A01EE200A7F
:101DF000D0ED070A30EE200A80ED070A90ED030AC5
:101E0000D0ED040AB0EE001A01EE600AD0ED050A2A
:101E100070EE200A90ED070A90ED021A01EE200AFA
:101E200080ED070A90ED070AD0ED130AB4EEE00A40
:101E3000F1EE10FA03DB90ED130A80ED070A90ED46
:101E4000070AD0ED130AF1EE600AB4EEE00AF1EEF3
:101E500010FA05D890ED130AB1EE400A80ED070A9A
:101E600090ED070AD0ED080A30EE600AD0ED140AB2
:101E7000B4EEE00AF1EE10FA07DD90ED080AD0EDBD
:101E8000140A30EE200A80ED070A90ED070AD0ED23
:101E9000080A30EE600AD0ED140AF1EE600AB4EEE2
:101EA000E00AF1EE10FA09D290ED080AD0ED140A1A
:101EB000F1EE600A30EE200A80ED070A90ED070A85
:101EC00080ED080A90ED070A704790ED000AD0ED0A
:101ED000030A20EE200AD0ED030A90ED041A70EEFA
:101EE000C10A90ED021A01EE200A80ED070A90ED7A
:101EF000070AD0ED060A90ED011A00EE810A80ED86
:101F0000070A90ED070AD0ED130AB4EEE00AF1EEED
:101F100010FA03DB90ED130A80ED070A90ED070A33
:101F2000D0ED130AF1EE600AB4EEE00AF1EE10FA19
:101F300005D890ED130AB1EE400A80ED070A90ED46
:101F4000070AD0ED080A30EE600AD0ED140AB4EEAC
:101F5000E00AF1EE10FA07DD90ED080AD0ED140A60
:101F600030EE200A80ED070A90ED070AD0ED080A4E
:101F700030EE600AD0ED140AF1EE600AB4EEE00A29
:101F8000F1EE10FA09D290ED080AD0ED140AF1EE44
:101F9000600A30EE200A80ED070A90ED070A80ED16
:101FA000080A90ED070A7047D0ED0C0AF4EE400ADB
:101FB000F1EE10FA04D080ED0C0A012180F82C100B
:101FC0007047000080ED0A0A90F82C1001295CD1BE
:101FD000D0ED0D0A90ED0E1AF4EEC10AF1EE10FAF2
:101FE00008D2D0ED0D0AB7EE001A70EE810AC0EDEE
:101FF0000D0A4AE0DFED4C0AC0ED0D0AD0ED090AEA
:1020000090ED0C1AF4EEC10AF1EE10FA18D2D0EDF0
:10201000090A90ED0F1A70EE810AC0ED090AD0EDA1
:10202000090A90ED0C1AF4EEC10AF1EE10FA2CDB5D
:10203000D0ED0C0AC0ED090A002180F82C1024E034
:10204000D0ED090A90ED0C1AF4EEC10AF1EE10FA87
:1020500018DDD0ED090A90ED0F1A70EEC10AC0ED3F
:10206000090AD0ED090A90ED0C1AF4EEC10AF1EE5E
:1020700010FA0AD8D0ED0C0AC0ED090A002180F848
:102080002C1002E0002180F82C10D0ED040AC0EDE5
:10209000050AD0ED030AC0ED040AD0ED090A70EE7E
:1020A000C00AC0ED030AD0ED030A90ED111AF4EE58
:1020B000C10AF1EE10FA0ED2D0ED030A90ED111A1A
:1020C000B1EE411AF4EEC10AF1EE10FA03DDDFEDD4
:1020D000160AC0ED030AD0ED060A90ED031A70EE61
:1020E000810AC0ED060AD0ED060A90ED121AF4EE50
:1020F000C10AF1EE10FA04DDD0ED120AC0ED060AB5
:1021000010E0D0ED060A90ED121AB1EE411AF4EE8D
:10211000C10AF1EE10FA05D2D0ED120AF1EE600A12
:10212000C0ED060A704700000000000010B504462C
:10213000274890ED040A80ED050A90ED030A80ED32
:10214000040A204601F07EFB214880ED030A90ED51
:10215000060AD0ED030A30EE200A80ED060A90ED63
:10216000000AD0ED030A20EE200AD0ED030A90ED1C
:10217000041A70EEC10A90ED021A01EE200A80EDF9
:10218000070A90ED070AD0ED010A90ED061A00EE5D
:10219000810A80ED070A90ED070AF3EE040AB4EE17
:1021A000E00AF1EE10FA04DDB3EE040A80ED070A4E
:1021B0000DE0074890ED070AFBEE040AB4EEE00AD2
:1021C000F1EE10FA03D2BBEE040A80ED070A10BD4F
:1021D0003C0000207047000010B588B00446012183
:1021E000C80400F05FF80121042000F04BF8082239
:1021F0000A212248FEF7DAFF08220B211F48FEF7CA
:10220000D5FF4FF44060069002208DF81C008DF839
:102210001D0000208DF81E0001208DF81F0006A96A
:102220001648FEF77BFF012240F22551144802F0C8
:1022300070FB34208DF8040002208DF805008DF825
:10224000060001208DF8070001A8FFF747FB029464
:102250000020ADF80C00ADF80E00ADF81000ADF8A0
:1022600014000C20ADF8120002A9054802F076FB1C
:102270000021034802F00EFB08B010BD0008024028
:10228000004C004029B1064A12680243044B1A6010
:1022900004E0034A12688243014B1A607047000051
:1022A0003038024029B1064A12680243044B1A60D2
:1022B00004E0034A12688243014B1A607047000031
:1022C0004038024029B1064A12680243044B1A60A2
:1022D00004E0034A12688243014B1A607047000011
:1022E00044380240F0B500210022002402250026D7
:1022F0000223324F3F6807F00C0121B1042905D0B9
:10230000082937D105E02E4F076036E02D4F0760D2
:1023100033E02A4F3F1F3F68C7F38056274F3F1FC8
:102320003F6807F03F036EB1264FB7FBF3F7DFF8C6
:102330008CC0ACF1040CDCF800C0CCF3881C07FBAB
:102340000CF40CE01E4FB7FBF3F7DFF870C0ACF1F4
:10235000040CDCF800C0CCF3881C07FB0CF4174F0E
:102360003F1F3F68C7F301477F1C7D00B4FBF5F7B3
:10237000076002E0124F076000BF00BF0F4F3F68C9
:1023800007F0F0010909104F7A5C0768D7404760F1
:102390000A4F3F6807F4E051890A0B4F7A5C47689F
:1023A000D7408760054F3F6807F46041490B064FEF
:1023B0007A5C4768D740C760F0BD0000083802402B
:1023C0000024F40000127A0046010020F8B5002431
:1023D0000027002500264FF08040406A04B200200C
:1023E0004FF0804148621848006807B20020164943
:1023F00008601648006805B20020144908601448B7
:10240000006806B200201249086070426B423A46EA
:10241000614200900FA002F05FFE704203B268427A
:1024200002B23946604200B200F0D2FC704203B200
:10243000684202B23946604200B202F047FB012016
:1024400008490870F8BD000024040040240800403A
:10245000240C0040563A25642C25642C25642C2538
:10246000640A0000BE00002010B50020104908706A
:1024700010480078012809D10F4890ED000B51EC6D
:10248000100BFDF7E7FF00EE100A10BD09480078B9
:10249000022809D1094890ED000B51EC100BFDF713
:1024A000D9FF00EE100AF0E79FED050AEDE7000006
:1024B000E2000020CA000020D0000020D800002048
:1024C0000000B4437047000000B591B001214805F9
:1024D000FFF7D8FE01224021234802F0E7F910203F
:1024E0008DF8400001208DF841008DF842008DF8F4
:1024F000430010A8FFF7F2F91C48FEF713FB00BFDA
:102500001A48FEF7BBFB0028FAD14FF0006001909B
:102510001548001D029016480390002004900B20DF
:102520000590002006904FF48060079000200890EE
:1025300009904FF480700A904FF440300B900020C7
:102540000C900D900E900F9001A90848FEF712FC18
:10255000012210210548FEF7EFFB01210348FEF799
:10256000D5FA11B000BD0000004400408860024070
:10257000D41300200CB5002001900090344800686E
:1025800040F480303249086000BF3148006800F4F0
:10259000003000900198401C0190009818B90198F3
:1025A000B0F5A04FF1D12A48006800F4003010B116
:1025B0000120009001E0002000900098012846D101
:1025C00023484030006840F0805021494031086085
:1025D0002048006840F440401E4908601C4808300C
:1025E00000681B49083108600846006840F4004054
:1025F00008600846006840F4A05008601648091FAB
:102600000860081F006840F08070091F086000BF64
:102610000F48006800F000700028F9D040F2057003
:102620000E4908600A480830006820F00300084995
:10263000083108600846006840F00200086000BFEA
:1026400003480830006800F00C000828F8D10CBDE1
:10265000003802400070004008544007003C02402F
:1026600010B52DED048BB0EE408AF0EE608AB0EE2E
:10267000419AF0EE619AA7480078B0B90120A549C7
:1026800008709FEDA50AA54880ED000A9FEDA20AFB
:10269000A34880ED000A9FEDA00AA24880ED000A41
:1026A0009FED9D0AA04880ED000A9FEDA00AB4EEC0
:1026B000C08AF1EE10FA03DD9FED9C0AB0EE408A6D
:1026C0009FED9B0AB4EEC08AF1EE10FA03D29FEDA3
:1026D000980AB0EE408A9FED950AF4EEC08AF1EEBA
:1026E00010FA03DD9FED910AF0EE408A9FED900A0B
:1026F000F4EEC08AF1EE10FA03D29FED8D0AF0EEEF
:10270000408A9FED8A0AB4EEC09AF1EE10FA03DD1A
:102710009FED860AB0EE409A9FED850AB4EEC09A0E
:10272000F1EE10FA03D29FED820AB0EE409A9FEDCF
:102730007F0AF4EEC09AF1EE10FA03DD9FED7B0AFA
:10274000F0EE409A9FED7A0AF4EEC09AF1EE10FA9C
:1027500003D29FED770AF0EE409AB5EEC08AF1EE13
:1027600010FA12DD9FED730A78EE400A6B4890ED87
:10277000001A9FED710A00EE810ABDEEC00A10EE4C
:10278000100A00B26D4908801AE0B5EEC08AF1EE79
:1027900010FA12D29FED670A78EE000A5F4890EDBA
:1027A000001A9FED650A10EE810ABDEEC00A10EE18
:1027B000100A00B26149088002E000205F490880E9
:1027C000F5EEC08AF1EE10FA12DD9FED5A0A78EEAE
:1027D000C00A534890ED001A9FED570A00EE810A97
:1027E000BDEEC00A10EE100A00B2554908801AE08A
:1027F000F5EEC08AF1EE10FA12D29FED4E0A78EE95
:10280000800A474890ED001A9FED4B0A10EE810AAE
:10281000BDEEC00A10EE100A00B24949088002E07D
:10282000002047490880B5EEC09AF1EE10FA12DD9B
:102830009FED400A79EE400A3A4890ED001A9FED6C
:102840003E0A00EE810ABDEEC00A10EE100A00B288
:102850003C4908801AE0B5EEC09AF1EE10FA12D2A7
:102860009FED340A79EE000A2E4890ED001A9FED94
:10287000320A10EE810ABDEEC00A10EE100A00B254
:102880003049088002E000202E490880F5EEC09A09
:10289000F1EE10FA12DD9FED270A79EEC00A224808
:1028A00090ED001A9FED240A00EE810ABDEEC00AE9
:1028B00010EE100A00B2244908801AE0F5EEC09A22
:1028C000F1EE10FA12D29FED1B0A79EE800A16483B
:1028D00090ED001A9FED180A10EE810ABDEEC00AB5
:1028E00010EE100A00B21849088002E000201649D4
:1028F00008801548B0F900301248B0F9002010489F
:10290000B0F900100D48B0F9000000F01FF8BDEC60
:10291000048B10BDB4000020DFF4A640A40000200A
:10292000A8000020AC000020B00000200080AC43D4
:102930000080ACC30000000000004843B600002047
:10294000B8000020BA000020BC0000202DE9F05F94
:1029500004460D4616461F464FF00108C146C246C2
:10296000C3462648048045808680C780002C02DA52
:10297000604204B207E0002C03DD00BF4FF0020804
:1029800001E00024A046002D04DA684205B24FF0B1
:10299000010907E0002D03DD00BF4FF0020901E04F
:1029A0000025A946002E04DA704206B24FF0020A52
:1029B00007E0002E03DD00BF4FF0010A01E0002612
:1029C000B246002F04DA784207B24FF0020B07E05C
:1029D000002F03DD00BF4FF0010B01E00027BB46D5
:1029E0005B46524649464046FEF7CEFD3B463246E0
:1029F00029462046FEF72AFFBDE8F09F9C000020F4
:102A000010B52DED0A8B0446B0EE408AF0EE608AD8
:102A1000B0EE419A9FED560AF0EE40AA9FED540A9F
:102A2000B0EE40BA9FED520AF0EE40BA9FED500A68
:102A3000B0EE40CA9FED4E0AF0EE409A9FED4C0A70
:102A4000B0EE40AA38EEC80A30EE090A494880EDD7
:102A5000000A38EE880A30EE490A80ED010A38EEA5
:102A6000C80A30EE490A80ED020A38EE880A30EED4
:102A7000090A80ED030A012000F07EF8F0EE40BA6A
:102A8000022000F079F8B0EE40CA78EEC80A70EE85
:102A9000EB0AB0EE600AFEF713FFF0EE409A78EE14
:102AA000880A70EECC0AB0EE600AFEF709FFB0EEBD
:102AB00040AAF4EECA9AF1EE10FA0CD289EE8A0A14
:102AC000F0EE000A20EE200AF0EE40AAB0EE000A76
:102AD000B0EE40BA19E0F4EECA9AF1EE10FA0CDD4D
:102AE0008AEE290AF0EE000A20EE200AB0EE40BA83
:102AF000B0EE000AF0EE40AA07E0B0EE000AF0EEF9
:102B000040AAB0EE000AB0EE40BAF0EE6A0A9FEDBD
:102B1000180A012000F066F9F0EE4B0A9FED140A46
:102B2000022000F05FF9F0EE6A0A9FED110A03201F
:102B300000F058F9F0EE4B0A9FED0D0A042000F06A
:102B400051F90C4890ED032AF0EE421A90ED022A5A
:102B5000B0EE421A90ED012AF0EE420A90ED002A02
:102B6000B0EE420A00F06AF9BDEC0A8B10BD00001D
:102B700000000000D8020020012806D0022808D05A
:102B800003280AD0042810D10BE0094991ED090A65
:102B90007047084991ED090AFAE7074991ED090ADA
:102BA000F6E7064991ED090AF2E79FED050AEFE71E
:102BB0002C14002080140020D4140020281500209C
:102BC0000000000010B50446774804707748FFF70E
:102BD000ADF87748FFF7AAF87648FFF7A7F87648E8
:102BE000FFF7A4F8002C54D1B2EE0E0A6F4880ED26
:102BF000000AB7EE000A80ED010AB6EE000A80ED89
:102C0000020A9FED6E0A80ED130A9FED6D0A80EDBA
:102C1000140AB2EE0E0A664880ED000AB7EE000A0A
:102C200080ED010AB6EE000A80ED020A9FED630A0C
:102C300080ED130A9FED620A80ED140AB2EE0E0ACF
:102C40005C4880ED000AB7EE000A80ED010AB6EE9E
:102C5000000A80ED020A9FED590A80ED130A9FEDEC
:102C6000580A80ED140AB2EE0E0A534880ED000AAD
:102C7000B7EE000A80ED010AB6EE000A80ED020A06
:102C80009FED4E0A80ED130A9FED4D0A80ED140A68
:102C900055E0012C53D1B2EE0A0A444880ED000AF7
:102CA0009FED480A80ED010A9FED470A80ED020A78
:102CB0009FED420A80ED130A9FED410A80ED140A50
:102CC000B2EE0A0A3A4880ED000A9FED3E0A80ED16
:102CD000010A9FED3D0A80ED020A9FED380A80ED62
:102CE000130A9FED370A80ED140AB2EE0A0A314842
:102CF00080ED000A9FED330A80ED010A9FED320A54
:102D000080ED020A9FED2D0A80ED130A9FED2C0A3B
:102D100080ED140AB2EE0A0A274880ED000A9FED02
:102D2000290A80ED010A9FED280A80ED020A9FED35
:102D3000230A80ED130A9FED220A80ED140A9FED0D
:102D4000230A1A4880ED120A9FED200A184880EDE8
:102D5000120A9FED1E0A174880ED120A9FED1B0A0A
:102D6000154880ED120A114880F84040104880F85C
:102D70004040104880F840400F4880F840409FEDA8
:102D8000120A0A4880ED110A9FED0F0A084880EDEB
:102D9000110A9FED0D0A074880ED110A9FED0A0AFE
:102DA000054880ED110A10BDEC0000202C14002015
:102DB00080140020D4140020281500200080BB437C
:102DC0000000C842CDCC4C3E0000000000007A4418
:102DD00010B5034C20806180A280E38010BD00000C
:102DE00010140020012806D002280AD003280ED093
:102DF000042818D111E00D4981ED0E0AC1ED0F0A2A
:102E000011E00B4981ED0E0AC1ED0F0A0BE00949F3
:102E100081ED0E0AC1ED0F0A05E0074981ED0E0AAA
:102E2000C1ED0F0A00BF00BF704700002C14002046
:102E300080140020D41400202815002010B52DED9A
:102E4000048BF0EE409AB0EE608AF0EE418AB0EE6C
:102E5000619AB0EE690A0A48FFF7A6F8B0EE480A90
:102E60000848FFF7A1F8B0EE680A0748FFF79CF89A
:102E7000B0EE490A0548FFF797F8BDEC048B10BD8A
:102E80002C14002080140020D414002028150020C9
:102E900010B53348B0F9000000EE900AF8EEE00AF1
:102EA000B0EE600A2F48FFF78DF82D48B0F9020008
:102EB00000EE900AF8EEE00AB0EE600A2A48FFF74A
:102EC00081F82748B0F9040000EE900AF8EEE00A15
:102ED000B0EE600A2548FFF775F82148B0F9060002
:102EE00000EE900AF8EEE00AB0EE600A2048FFF724
:102EF00069F82048007860B91A48FEF769FF1A4857
:102F0000FEF766FF1948FEF763FF1948FEF760FFFA
:102F10000FE01848007801280BD11248FEF7D5FFC2
:102F20001148FEF7D2FF1148FEF7CFFF1048FEF719
:102F3000CCFF0F4890ED072AF0EE421A0B4890EDB7
:102F4000072AB0EE421A084890ED072AF0EE420A2E
:102F5000044890ED072AB0EE420AFFF781FB10BD4E
:102F6000101400202C14002080140020D414002001
:102F700028150020EC000020042808D14FF0E021A3
:102F8000096941F004014FF0E022116107E04FF0C0
:102F9000E021096921F004014FF0E022116170473E
:102FA0007047000010B51548006840F470001349E0
:102FB00008601348006840F00100114908600020D3
:102FC0000F49083108600E4800680E4908400C4956
:102FD00008600D48091D0860081F006820F4802063
:102FE000091F0860002006490C310860FFF7C2FA8B
:102FF0004FF0006001498039086010BD88ED00E0A5
:1030000000380240FFFFF6FE1030002430B50025E6
:1030100000240023462000F063F8C4B2462000F0EC
:1030200037F9C3B2462000F09DFC1CB913B99FEDDF
:103030002A0A30BD29480068012807D127481830DE
:103040000068012802D19FED240AF2E7042D02DB7B
:103050009FED210AEDE7032C04D1042B02D19FED53
:103060001E0AE6E7032C0FDA032B02D1BFEE000A9B
:10307000DFE7032B05DAE01E00EE100AB8EEC00A07
:10308000D7E79FED150AD4E7032C0FD1032B02D10C
:10309000BFEE000ACDE7042B05DDE01E00EE100AAE
:1030A000B8EEC00AC5E79FED0C0AC2E7032C0FDD9E
:1030B000042B02D1B7EE000ABBE7042B05DD181F75
:1030C00000EE100AB8EEC00AB3E79FED030AB0E7BE
:1030D0009FED010AADE700000000000004824142BC
:1030E0000146422967D0462904D04C296FD0522985
:1030F0002FD12FE061480068012800D170475F4858
:10310000001D0068012801D10220F7E75B48083064
:103110000068012801D10320F0E758480C3000680E
:10312000012801D10420E9E7544810300068012843
:1031300001D10520E2E7514814300068012801D18F
:103140000620DBE74D4818300068012801D1072030
:10315000D4E78FE049481C300068012800D1CDE752
:10316000464820300068012801D10220C6E74348C4
:1031700024300068012801D10320BFE73F482830F0
:103180000068012801D10420B8E73C482C300068D1
:10319000012801D10520B1E7384830300068012806
:1031A00001D10620AAE7354834300068012801D152
:1031B0000720A3E75EE032480068012800D19DE7C0
:1031C0002F48001D0068012802D1022096E721E067
:1031D0002C480068012801D103208FE72948001DF1
:1031E0000068012801D1042088E7274800680128E9
:1031F00001D1052082E72448001D0068012801D183
:1032000006207BE7204808300068012801D107200C
:1032100074E72FE01D480068012800D16EE71848C8
:10322000001F0068012801D1022067E71448083810
:103230000068012801D1032060E711480C380068BC
:10324000012801D1042059E70D48103800680128F1
:1032500001D1052052E70A4824300068012801D135
:1032600006204BE7074814380068012801D10720E1
:1032700044E700BF00BF002040E700000482414255
:10328000100241421C0242422C824042140240423F
:103290000146422967D0462904D04C2970D05229D2
:1032A0002FD12FE061480068012801D10720704725
:1032B0005E48001F0068012801D10620F7E75B483F
:1032C00008380068012801D10520F0E757480C387C
:1032D0000068012801D10420E9E75448103800684B
:1032E000012801D10320E2E7504814380068012882
:1032F00001D10220DBE74D4818380068012800D1D1
:10330000D5E78FE049481C300068012801D107202B
:10331000CDE7464818300068012801D10620C6E7ED
:10332000424814300068012801D10520BFE73F481A
:1033300010300068012801D10420B8E73B480C3068
:103340000068012801D10320B1E73848083000683F
:10335000012801D10220AAE73448001D0068012895
:1033600000D1A4E75EE032480068012801D10720BF
:103370009DE72F48001F0068012802D1062096E72C
:1033800020E02B4808380068012801D105208EE78D
:1033900028480068012801D1042088E72548001F3B
:1033A0000068012801D1032081E723480068012833
:1033B00001D102207BE72048001F0068012800D1CE
:1033C00075E72FE01B4818380068012801D1072055
:1033D0006DE7194820300068012801D1062066E712
:1033E000154814380068012801D105205FE712480C
:1033F00010380068012801D1042058E70E480C3825
:103400000068012801D1032051E70B480838006803
:10341000012801D102204AE708480068012800D1AC
:1034200045E700BF00BF002041E700001C82414289
:10343000348240422002424214024142140240427D
:1034400010B50022072301243A480068012801D161
:10345000501CC2B23748001D0068012801D1501C21
:10346000C2B235480068012801D1501CC2B23248AE
:10347000001D0068012801D1501CC2B22F4800680D
:10348000012801D1501CC2B22C48001D006801283F
:1034900001D1501CC2B2294808300068012801D16E
:1034A000501CC2B24220FFF71BFEC3B24220FFF7FE
:1034B000EFFEC4B21BB914B99FED210A10BD1D481F
:1034C0000068012807D11D4808300068012802D192
:1034D0009FED1B0AF2E7042A02DB9FED190AEDE7D4
:1034E000042B02D19FED160AE8E7042B10DA042C16
:1034F00002D1B7EE000AE1E7042C06DAC3F10400BA
:1035000000EE100AB8EEC00AD8E79FED0D0AD5E725
:10351000042B02D19FED0A0AD0E7042B06DDC4F18B
:10352000040000EE100AB8EEC00AC7E79FED040AD7
:10353000C4E70000100241421C0242422C82404279
:103540000000000010B50022072301243A4800685B
:10355000012801D1501CC2B23748001D0068012863
:1035600001D1501CC2B2344808300068012801D192
:10357000501CC2B230480C300068012801D1501CE8
:10358000C2B22D4810300068012801D1501CC2B2CF
:10359000294814300068012801D1501CC2B22648C5
:1035A00018300068012801D1501CC2B24620FFF734
:1035B00097FDC3B24620FFF76BFEC4B21BB914B926
:1035C0009FED1E0A10BD1C480068012807D11A484B
:1035D00018300068012802D19FED180AF2E7042A8A
:1035E00002DB9FED160AEDE7042B02D19FED130AD3
:1035F000E8E7042B0FDA042C02D1BFEE000AE1E762
:10360000042C05DA181F00EE100AB8EEC00AD9E73C
:103610009FED0A0AD6E7042B02D19FED080AD1E7F5
:10362000042B05DD201F00EE100AB8EEC00AC9E722
:103630009FED020AC6E7000004824142000000003C
:1036400010B500220723012439480068012801D160
:10365000501CC2B237480068012801D1501CC2B2C8
:103660003448001F0068012801D1501CC2B2314803
:1036700008380068012801D1501CC2B22D480C380E
:103680000068012801D1501CC2B22A4828300068C5
:10369000012801D1501CC2B227480068012801D17D
:1036A000501CC2B24C20FFF71BFDC3B24C20FFF7E9
:1036B000EFFDC4B21BB914B99FED200A10BD1C4820
:1036C0000068012806D11C480068012802D19FED3E
:1036D0001B0AF3E7042A02DB9FED180AEEE7032B2F
:1036E00004D1052C02D19FED150AE7E7042B0FDA70
:1036F000042C02D1BFEE000AE0E7042C05DA181F03
:1037000000EE100AB8EEC00AD8E79FED0C0AD5E724
:10371000042B02D1B6EE000AD0E7042B05DD201FF2
:1037200000EE100AB8EEC00AC8E700BFC6E7000006
:10373000140240420C0241420802424200000000D2
:1037400010B50022072301243C480068012801D15C
:10375000501CC2B23948001D0068012801D1501C1C
:10376000C2B2364808300068012801D1501CC2B2EC
:1037700032480C300068012801D1501CC2B22F48D9
:1037800010300068012801D1501CC2B22B481430FF
:103790000068012801D1501CC2B2284818300068C6
:1037A000012801D1501CC2B25220FFF799FCC3B2CC
:1037B0005220FFF76DFDC4B21BB914B99FED200A6A
:1037C00010BD1E480068012807D11C481830006849
:1037D000012802D19FED1A0AF2E7042A02DB9FEDCD
:1037E000180AEDE7032B04D1052C02D19FED140A32
:1037F000E6E7042B10DA042C02D1B7EE000ADFE76B
:10380000042C06DAC3F1040000EE100AB8EEC00A78
:10381000D6E79FED0B0AD3E7042B02D1BEEE000AD8
:10382000CEE7042B06DDC4F1040000EE100AB8EE6A
:10383000C00AC5E79FED020AC2E7000020824142AC
:103840000000000030B5054600230024582D39D073
:10385000592D77D13D48006801280CD03B481830DD
:103860000068012807D03A480068012803D0394889
:103870000068012802D19FED380A30BD4620FFF7CD
:1038800007FDC0F1080043B24220FFF729FC0446BF
:10389000A34210D14620FFF723FC03464220FFF746
:1038A000F7FCC0F1080044B2E01A400000EE100A34
:1038B000B8EEC00AE1E7181B400000EE100AB8EEAF
:1038C000C00ADAE721481C30006801280CD01F48E4
:1038D00034300068012807D020480068012803D050
:1038E0001F480068012802D19FED1B0AC5E752203E
:1038F00000F038F8012804DD4C2000F033F80128EE
:1039000002DC9FED150AB8E75220FFF7C1FCC0F1B9
:10391000080043B24C20FFF7E3FB0446A34209D161
:103920005220FFF7DDFB03464C20FFF7B1FCC0F14E
:10393000080044B2181B400000EE100AB8EEC00A9E
:103940009BE7FFE700BF9FED040A96E70482414230
:103950001002414234824042000000001402404202
:103960000802424201460020422937D0462904D0AD
:103970004C297DD0522930D15FE0634A1268012A78
:1039800001D1421C50B2604A121D1268012A01D1B5
:10399000421C50B25C4A08321268012A01D1421C12
:1039A00050B2594A0C321268012A01D1421C50B25D
:1039B000554A10321268012A01D1421C50B2524AB3
:1039C00014321268012A01D1421C50B24E4A1832F8
:1039D0001268012A01D1421C50B293E04B4A12688E
:1039E000012A01D1421C50B2484A121D1268012A14
:1039F00001D1421C50B2464A1268012A01D1421C30
:103A000050B2434A121D1268012A01D1421C50B221
:103A1000404A1268012A01D1421C50B23D4A121D8F
:103A20001268012A01D1421C50B23A4A0832126887
:103A3000012A01D1421C50B264E0334A1C321268A0
:103A4000012A01D1421C50B22F4A20321268012AA9
:103A500001D1421C50B22C4A24321268012A01D1F1
:103A6000421C50B2284A28321268012A03D100E0D1
:103A700017E0421C50B2244A2C321268012A01D1AC
:103A8000421C50B2204A30321268012A01D1421C35
:103A900050B21D4A34321268012A01D1421C50B280
:103AA00030E01D4A1268012A01D1421C50B2174A67
:103AB000121F1268012A01D1421C50B2134A083A5F
:103AC0001268012A01D1421C50B2104A0C3A126805
:103AD000012A01D1421C50B20C4A103A1268012A44
:103AE00001D1421C50B2094A24321268012A01D184
:103AF000421C50B2064A143A1268012A01D1421CF3
:103B000050B200BF00BF70470482414210024142E0
:103B10001C0242422C824042140240421CB5012148
:103B20005C20FEF7AFFB42F23F00009000208DF8D2
:103B3000040003208DF8050000208DF80700694679
:103B40002148FDF7EBFA4FF46050009000208DF80B
:103B5000040003208DF8050000208DF80700694659
:103B60001A48FDF7DBFA2020009000208DF80400B1
:103B700003208DF8050000208DF8070069461448E1
:103B8000FDF7CCFA47F6FE70009000208DF8040097
:103B900003208DF8050000208DF8070069460D48C8
:103BA000FDF7BCFA4FF4C270009000208DF80400BD
:103BB00003208DF8050000208DF8070069460648AF
:103BC000FDF7ACFA1CBD00000008024000040240F2
:103BD00000000240000C02400010024000B500F05E
:103BE00067F800F00BF800F0B5F800F00DF90120CF
:103BF0000149087000BD00002B0100202848006822
:103C0000012802D12749C87102E000202549C87166
:103C10002348001D0068012803D1012121480172B9
:103C200002E000211F4801721F480068012803D1EB
:103C300001211C48417202E000211A4841721A48D1
:103C4000001D0068012803D101211648817202E09D
:103C500000211448817215480068012803D1012110
:103C60001048C17202E000210E48C1720F48001DC9
:103C70000068012803D101210A48017302E00021F4
:103C800008480173094808300068012803D1012160
:103C90000448417302E0002102484173704700006C
:103CA00010024142040100201C0242422C82404288
:103CB00026480068012802D12549087002E000204A
:103CC000234908702148001D0068012802D12049BD
:103CD000487002E000201E4948701C480830006807
:103CE000012802D11A49887002E000201849887022
:103CF00016480C300068012802D11549C87002E04E
:103D000000201349C870114810300068012802D102
:103D10000F49087102E000200D4908710B4814306A
:103D20000068012802D10A49487102E000200849D0
:103D30004871064818300068012802D1044988718A
:103D400002E000200249887170470000048241426D
:103D50000401002028480068012802D127498873FF
:103D600002E000202549887325480068012803D116
:103D700001212248C17302E000212048C17320487C
:103D8000001F0068012803D101211C48017402E0D2
:103D900000211A4801741A4808380068012803D124
:103DA00001211648417402E000211448417414486E
:103DB0000C380068012803D101211048817402E009
:103DC00000210E4881740E4828300068012803D174
:103DD00001210A48C17402E000210848C174094861
:103DE0000068012803D101210448017502E0002187
:103DF000024801757047000014024042040100208F
:103E00000C0241420802424229480068012802D1BE
:103E10002849487502E00020264948752448001DBD
:103E20000068012803D101212248817502E00021A8
:103E3000204881751E4808300068012803D10121FF
:103E40001C48C17502E000211A48C17518480C30A1
:103E50000068012803D101211648017602E0002103
:103E600014480176124810300068012803D101215E
:103E70001048417602E000210E4841760C4814308B
:103E80000068012803D101210A48817602E000215F
:103E900008488176064818300068012803D10121BE
:103EA0000448C17602E000210248C1767047000054
:103EB0002082414204010020F0B50C461546002145
:103EC0000022068C4FF6FE773E400684018B028C62
:103ED0004FF60C7631407E1C06EA03162E43314322
:103EE0004FF6F576324044F00106324301830284F6
:103EF000F0BDF0B50C461546002100220026078CC7
:103F00004FF6EF7C07EA0C070784018B028C4FF613
:103F1000FF7707EA041640F6FF4739404FF6FF7770
:103F200007EA033739434FF6FF7707EA0527394396
:103F30004FF65F773A4046F010073A430183028418
:103F4000F0BDF0B50C461546002100220026078C76
:103F50004FF6FF6C07EA0C070784818B028C4FF643
:103F6000FF7707EA04264FF60C7739404FF6FF77C4
:103F700007EA03172F4339434FF2FF573A4046F4FD
:103F800080773A4381830284F0BDF0B50C46154634
:103F9000002100220026078C4EF6FF7C07EA0C0762
:103FA0000784818B028C4FF6FF7707EA043640F6D0
:103FB000FF4739404FF6FF7707EA052739434FF6A9
:103FC000FF7707EA0337394345F6FF773A4046F46F
:103FD00080573A4381830284F0BD4FF08040008ACD
:103FE0004FF08040008A20F001004FF080410882AD
:103FF00070470000044800880348008820F0010052
:1040000001490880704700001004004004480088FF
:104010000348008820F00100014908807047000033
:1040200010080040044800880348008820F0010080
:104030000149088070470000100C004010B50121B4
:10404000194800F0B5F8012829D100F0F9FC17480B
:104050000088401C00B2154908800846B0F90000ED
:104060000A2190FBF1F201FB120038B9FEF7AEF91C
:10407000FEF70EFF00F034FEFFF7B0FD0B48B0F97D
:104080000000B0F57A7F0AD100200849088008486E
:10409000006808B9012000E00020054908600121FE
:1040A000014800F046F810BD00100040EE0000206E
:1040B000980240421FB501211020FEF7F3F84FF49B
:1040C0007A7002905320ADF804000020ADF806008D
:1040D000ADF80C0001A90E4800F046FA0122114685
:1040E0000B4800F0B6F80121094800F025F8362009
:1040F0008DF8000003208DF8010000208DF80200EB
:1041000001208DF803006846FDF7E8FB1FBD0000A5
:104110000010004021B1028842F08002028004E0D9
:1041200002884FF67F731A4002807047CA430282AA
:104130007047CA430282704721B1028842F00102EF
:10414000028004E002884FF6FE731A400280704736
:1041500031B1B0F8442042F40042A0F8442005E018
:10416000B0F84420C2F30E02A0F844207047F0B526
:104170000C4615461E460021002200230189028BB1
:10418000038C4FF6F877394021434FF6FC473A400D
:1041900040F201173A434FF6DD773B404FF6FF7789
:1041A00007EA06172F433B43018102830384F0BDD6
:1041B00030B50246002000230024158A05EA0103D9
:1041C000958905EA010413B10CB1012000E000203B
:1041D00030BD70B505460C46208850B92389A288A9
:1041E00061882846FFF768FEE188284600F08FF9CD
:1041F00025E0208804280AD12389A28861882846DE
:10420000FFF777FEE188284600F08AF917E020885A
:1042100008280AD12389A28861882846FFF791FEE1
:10422000E188284600F089F909E02389A28861889D
:104230002846FFF7AAFEE188284600F087F970BDFE
:10424000002101804180012181800021C180018104
:1042500070471AB183890B43838102E083898B43C2
:104260008381704770B5002400220023058C4FF62F
:10427000FE7635400584028C8388048B4FF68F755B
:104280002C40B51E2C400D882C43751E2A408D896C
:104290002A434D882A43104DA84202D00F4DA84210
:1042A00013D14FF6F7752A40CD892A434FF6FB7597
:1042B0002A408D882A434FF6FF652B404FF6FF5565
:1042C0002B400D8A2B434D8A2B43838004838D68BA
:1042D0004563028470BD00000000014000040140FD
:1042E0000A460021018B4FF6F773194011430183F1
:1042F0007047000070B5002400220023058C4FF6A3
:10430000EF7635400584028C8388048B48F6FF7570
:104310002C404FF6FF452C400D884FF6FF7606EAFD
:1043200005252C434FF6DF752A408D8906EA0515D1
:104330002A434D8806EA05152A43154DA84202D0A6
:10434000144DA8421DD14FF67F752A40CD894FF6F6
:10435000FF7606EA05152A434FF6BF752A408D8879
:1043600006EA05152A434FF6FF352B404FF2FF753D
:104370002B400D8A06EA85052B434D8A06EA850502
:104380002B43838004838D688563028470BD0000A5
:1043900000000140000401400A460021018B4FF259
:1043A000FF7319404FF6FF7303EA02231943018399
:1043B0007047000070B5002400220023058C4FF6E2
:1043C000FF6635400584028C8388848B4FF68F7599
:1043D0002C404FF6FC752C400D882C434FF6FF55B2
:1043E0002A408D894FF6FF7606EA05252A434D8837
:1043F00006EA05252A43154DA84202D0144DA842CD
:104400001DD14FF2FF752A40CD894FF6FF7606EA9F
:1044100005252A434FF6FF352A408D8806EA0525F3
:104420002A434EF6FF752B404DF6FF752B400D8A43
:1044300006EA05152B434D8A06EA05152B438380B2
:1044400084838D68C563028470BD00000000014054
:10445000000401400A460021818B4FF6F773194092
:10446000114381837047000070B5002200230024AF
:10447000058C4EF6FF7635400584038C8488828B4C
:1044800048F6FF752A404FF6FF452A400D884FF643
:10449000FF7606EA05252A434DF6FF752B408D89E8
:1044A00006EA05352B434D8806EA05352B430A4DB0
:1044B000A84202D0094DA84208D14BF6FF752C4006
:1044C0000D8A4FF6FF7606EA85152C438480828399
:1044D0008D680564038470BD000001400004014044
:1044E0000A460021818B4FF2FF7319404FF6FF738C
:1044F00003EA022319438183704741637047816354
:104500007047C16370470164704741627047028B16
:104510004FF6F3731A400283028B0A4302837047FB
:10452000028B4FF2FF331A400283028B4FF6FF7368
:1045300003EA01231A4302837047828B4FF6F37319
:104540001A408283828B0A4382837047828B4FF2A8
:10455000FF331A408283828B4FF6FF7303EA0123F5
:104560001A4382837047000000220288184B984249
:104570000ED0184B98420BD0B0F1804F08D0164B9C
:10458000984205D0154B984202D0154B984204D161
:104590004FF68F731A404B881A43124B984207D03C
:1045A000114B984204D04FF6FF431A400B891A432F
:1045B00002804B68C3620B880385054B984202D08A
:1045C000044B984201D18B7A038601238382704782
:1045D00000000140000401400004004000080040C9
:1045E000000C004000100040001400404FF0FF316C
:1045F000416000210180018141808172704700008B
:1046000010B540F22551124800F059F9F0B140F2CE
:1046100025510F4800F02FF90D4800F009FA0D4917
:104620000870084601780C4802780078401C0A4B54
:1046300018700A488154184600780E2806D10120C7
:10464000074908700021024800F024F910BD00005D
:10465000004C0040400100202C0100207C1500206F
:104660002D01002010B540F225511D4800F027F91A
:1046700010B31B4800F0DCF9C4B21A48008800F4FB
:104680000040C8B91748008800F4804060B10A2C87
:1046900003D000201349088020E01248008840F42D
:1046A00000401049088019E00D2C06D10D48008803
:1046B00040F480400B49088010E00A480088C0F3AD
:1046C0000D0009490C5407480088401C0549088022
:1046D00008460088C72801DD0020088010BD0000C2
:1046E00000100140C40000200C13002010B52DED77
:1046F000048B00245148007810B901204F490870FC
:104700004F4800F095F940B24E49087008460078CD
:1047100055287DD14C480078401C40B24A49087069
:104720001CE040F22551464800F0C9F8012810D19C
:10473000434800F07DF940B24249434A92F90020D3
:10474000885441480078401C40B23F49087000241A
:1047500004E0012001F060F9601CC4B23A4890F90D
:1047600000000A2801DC1E2CDBDD00203649087021
:1047700034484078532853D13248407A3149097A35
:1047800008443049C97908442E49897908442D499B
:10479000497908442B49097908442A49C9780844C9
:1047A00028498978084427494978084425490978DF
:1047B000084440B223490870084690F90A0091F96C
:1047C000001088422CD11D480078012802D1022017
:1047D0001A4908701B4991F908101A4A92F90720E2
:1047E00041EA0220FBF7E1FD41EC190B9FED170BAD
:1047F00053EC102BFBF76AFD41EC180B9FED150BEA
:1048000053EC102BFBF7F0FC144A03C2002000E02D
:1048100006E00C494870FDF757FE0120104908706A
:1048200040F22551064800F04AF8012802D1044818
:1048300000F0FEF8BDEC048B10BD0000E30000208A
:1048400000440040E8130020C900002000000000E0
:104850000000E0400000000000806640D000002022
:10486000C800002001F40072B2F5007F00D100BF43
:10487000CA430280704710B50022002340F66A1434
:10488000A14200D100BF0A1201249440A3B2DC432C
:10489000048010BD21B1828942F40052828104E07B
:1048A00082894DF6FF731A40828170471AB1838A5C
:1048B0000B43838202E0838A8B438382704770B507
:1048C0000246002400230025002040F66A16B1426B
:1048D00000D100BFC1F3421501F01F03012606FA03
:1048E00003F3012D02D19689334006E0022D02D157
:1048F000168A334001E0968A33400C12012606FAEC
:1049000004F41688344013B10CB1012000E00020FB
:1049100070BDF0B50346002400260025002040F6B7
:104920006A17B94200D100BF1846C1F3421401F022
:104930001F06012707FA06F5012C01D10C3004E00F
:10494000022C01D1103000E014301AB107682F4357
:10495000076002E00768AF430760F0BD2DE9FF473D
:1049600005460E460024A14600BFA046B08900B10E
:1049700000BF2C8A24F44054F08804432C82AC8974
:1049800041F20C608443B08831890843718908433F
:104990000443AC81AC8A24F44074B0890443AC82F3
:1049A0006846FDF79FFC2048854202D01F4885429B
:1049B00002D1DDF80C9001E0DDF80890A88900F440
:1049C000004040B109EBC90000EB09103168490013
:1049D000B0FBF1F707E009EBC90000EB0910316803
:1049E0008900B0FBF1F76420B7FBF0F00401200967
:1049F000642101FB1078A88900F4004040B1322006
:104A000000EBC800B0FBF1F000F00700044308E041
:104A1000322000EB08106421B0FBF1F000F00F0031
:104A200004432C81BDE8FF870010014000140140C1
:104A300001468888C0F30800704700BFFEE7000009
:104A400010B50F4890F80208C8B90D4890F803084F
:104A5000A8B90C4801F039F888B90A48008A82B22E
:104A60000749084801F03DF80549A1F80008B1F8E8
:104A7000000800F009F80120014981F8020810BD82
:104A8000EC020020F012002010B504460021064878
:104A9000FCF73CF821460448FCF798F9012102484C
:104AA000FCF734F810BD0000B864024010B54FF4B4
:104AB00000620449044801F03CF84FF4E13001F091
:104AC000A1F810BDF00A0020F0120020F0B5104D42
:104AD000D5E904743E1844EBE074C5E904642C463F
:104AE000D4E90664761844EBE174C5E906642C4603
:104AF000D4E90864B61844EBE274C5E908642C46AE
:104B0000D4E90A64F61844EBE374C5E90A64F0BD1D
:104B1000A802002010B588B0002400202C4908709D
:104B200001210846FDF7AEFB01214804FDF7BAFB61
:104B3000072203212748FCF739FB0C2006900220AE
:104B40008DF81C008DF81D0000208DF81E0001203E
:104B50008DF81F0006A91F48FCF7E0FA4FF4E1208A
:104B600002900020ADF80C00ADF80E00ADF810007A
:104B7000ADF814000420ADF8120002A91648FFF7A2
:104B8000EDFE01211448FFF785FE40211248FFF792
:104B900069FE012240F225510F48FFF7BAFE262098
:104BA0008DF8040002208DF8050000208DF8060025
:104BB00001208DF8070001A8FCF790FEFDF784FCAA
:104BC000C82000F00DFFFCF7E5FB08B010BD0000A9
:104BD000C8000020000002400044004010B52DED48
:104BE000028B394890ED040A80ED050A90ED030A26
:104BF00080ED040AFEF70AFA334880ED030A90EDCF
:104C0000060AD0ED030A30EE200A80ED060A90ED88
:104C1000030AB5EEC00AF1EE10FA05D12B48006880
:104C2000401C2A49086002E0002028490860264804
:104C300090ED000AD0ED030A20EE200AD0ED030A21
:104C400090ED041A70EEC10A90ED021A01EE200AEE
:104C500080ED070A90ED070AD0ED010A90ED061AE3
:104C600000EE810A80ED070A90ED070A10EE101A97
:104C70000846FBF7ABFB41EC180B9FED150B53EC13
:104C8000102BFBF7CFFB05D2B2EE0E0A0E4880EDDB
:104C9000070A15E00C4890ED070A10EE101A0846B6
:104CA000FBF794FB41EC180B9FED0B0B53EC102B17
:104CB000FBF7A0FB04D2BAEE0E0A034880ED070A08
:104CC000BDEC028B10BD0000680000200C0000202D
:104CD0000000000000002E400000000000002EC078
:104CE00000B52DED028B85B0FCF746FB012811D1F4
:104CF0009E48007801280DD100F052F99FED9C1AD2
:104D00009C48D0ED000A9C4890ED000A6846FDF7EB
:104D100077FE26E1FCF730FB01287CD1974800782C
:104D200001287ED196480078422822D0462804D017
:104D30004C2856D0522872D137E000F031F9FEF7F6
:104D400001FCB0EE408A00F025F9F0EE408A8A4876
:104D5000D0ED000AB1EE041A48EE010AB0EE600A86
:104D6000B0EE681A8348D0ED000A6846FDF748FEA9
:104D700055E000F015F9FEF763FBB0EE408A00F055
:104D800009F9F0EE408A7C48D0ED000AB1EE041A31
:104D900048EE010AB0EE600AB0EE681A7548D0ED30
:104DA000000A6846FDF72CFE39E000F0F9F8FEF73E
:104DB000C7FCB0EE408A00F0EDF8F0EE408A6D4896
:104DC00090ED000AB1EE041A08EE010AF0EE400A76
:104DD000B0EE681A684890ED000A6846FDF710FECC
:104DE0001DE000F0DDF8FEF72BFCB0EE408A00F08D
:104DF000D1F8F0EE408A5F4890ED000AB1EE041A57
:104E000008EE010AF0EE400AB0EE681A5A4890ED3A
:104E1000000A684600E004E0FDF7F2FD00BF00BFB5
:104E20009FE05848007801287DD1554800784228F5
:104E300022D0462804D04C2856D0522870D137E0D2
:104E4000FEF780FBB0EE408A5920FDF76FF94E481F
:104E5000D0ED070AB0EE601A4748D0ED000AF1EE37
:104E6000041A48EE210AB0EE600A4248D0ED000A6A
:104E70006846FDF7C5FD53E0FEF7E2FAB0EE408A62
:104E80005920FDF753F94048D0ED070AB0EE601AFB
:104E90003948D0ED000AF1EE041A48EE210AB0EECE
:104EA000600A3448D0ED000A6846FDF7A9FD37E0F6
:104EB000FEF746FCB0EE408A5820FDF737F932483D
:104EC00090ED070AB0EE401A2A4890ED000AF1EE84
:104ED000041A08EE210AF0EE400A274890ED000A75
:104EE0006846FDF78DFD1BE0FEF7AAFBB0EE408A99
:104EF0005820FDF71BF9244890ED070AB0EE401A40
:104F00001C4890ED000AF1EE041A08EE210AF0EEBA
:104F1000400A194890ED000A6846FDF771FD00BF90
:104F200000BF1EE0FFE719480078012819D1FFF7FC
:104F300055FE5920FDF7FAF81348D0ED070AB0EEF8
:104F4000601A1348D0ED070A0B48D0ED001A70EE36
:104F5000A10AB0EE600A0748D0ED000A6846FDF7E6
:104F60004FFD05B0BDEC028B00BD00009800002095
:104F700000000000080000200400002000000020C5
:104F800002000020010000203C000020030000205F
:104F900068000020014890ED070A704710000020CB
:104FA00010B52DED028B454890ED040A80ED050A01
:104FB00090ED030A80ED040AFDF756FA404880EDB3
:104FC000000AFCF7D3F93E48D0ED000A30EE600A43
:104FD0003A4880ED030A90ED060AD0ED030A30EE60
:104FE000200A80ED060A90ED030A10EE101A08461A
:104FF000FBF7ECF941EC180B9FED320B53EC102B47
:10500000FBF7F8F91DD22D4890ED030A10EE101AA7
:105010000846FBF7DBF941EC180B9FED2C0B53EC2A
:10502000102BFBF7FFF90CD29FED2A0A234880EDE5
:10503000030A9FED280A80ED060A9FED260A80EDFF
:10504000040A1E4890ED000AD0ED030A20EE200A63
:10505000D0ED030A90ED041A70EEC10A90ED021A29
:1050600001EE200A80ED070A90ED070AD0ED010A53
:1050700090ED061A00EE810A80ED070A90ED070A0E
:10508000F3EE0E0AB4EEE00AF1EE10FA04DDB3EE30
:105090000E0A80ED070A0DE0084890ED070AFBEEC6
:1050A0000E0AB4EEE00AF1EE10FA03D2BBEE0E0ADD
:1050B00080ED070ABDEC028B10BD0000100000203F
:1050C00094000020CDCCCCCCCCCCEC3FCDCCCCCC07
:1050D000CCCCECBF000000000FB4054B10B503A909
:1050E000044A029800F0DAF810BC5DF814FB0000E6
:1050F000AD5B0008C000002002E008C8121F08C114
:10510000002AFAD170477047002001E001C1121F48
:10511000002AFBD1704700002DE9FF5F82B000211B
:10512000DDE90430020DDDF840B0034318D044F649
:105130001050A2F2FF3242431514119801281FD0DB
:10514000A5EB0B00401C5FEA000A4FF000064E4F33
:10515000DFF83891B046504615D5CAF1000413E087
:10516000119801244AA3012801D16FEA0B0102988A
:10517000119AC0E90031C0E9024206B0BDE8F09FD3
:10518000CBF10000DFE704460021404A491842EB1A
:105190000450CDE9001012E0E00707D032463B464C
:1051A00040464946FBF720F88046894632463B4652
:1051B00010461946FBF718F806460F466410002CF7
:1051C000EAD1DDE90401DDE90023BAF1000F06DAD6
:1051D000FBF70AF842464B46FBF706F805E0FBF7FB
:1051E00075F842464B46FBF771F804460E4600221E
:1051F000284BFBF717F903D84FF0FF30014607E0C3
:105200000022254B20463146FBF71BFAFBF7C0FA7C
:10521000102409E0002C0ADB0A220023FBF74CF9DA
:10522000039B30321A55641E50EA0102F2D1641C0D
:10523000039AC4F111031444119A012A03D00122E4
:1052400008430DD10AE0084304D000204FF0110BB1
:10525000119072E7A3EB0B056D1E0DE05B4504DDBD
:105260004FF0000205F1010504E003DA4FF00002FF
:10527000A5F10105002AECD002981199C0E902318C
:10528000C0E9004579E70000000014400000F03F4D
:10529000300000000000F0430000E03F2DE9FF4F28
:1052A00095B09A46884606460025EEE1252877D136
:1052B00000242746F94A0121039400E0044316F82C
:1052C000013F203B01FA03F01042F7D130782A2841
:1052D00011D06FF02F033078A0F13002092A16D8D0
:1052E000039A44F0020402EB820203EB42021044F0
:1052F000761C0390EFE758F8042B0392002A03DA98
:10530000504244F40054039044F00204761C307878
:105310002E2816D116F8010F44F004042A280DD0C7
:105320006FF02F023078A0F13003092B09D807EB7A
:10533000870302EB4303C718761CF3E758F8047B96
:10534000761C30786C280FD006DC4C2817D06828E3
:105350000DD06A2814D104E0742810D07A280FD117
:105360000DE044F400140AE044F4801401E044F435
:1053700040147278824202D104F58014761C761CA7
:10538000307866280BD013DC582877D009DC002849
:1053900075D04528F6D04628F4D047281AD193E195
:1053A00018E0632835D0642879D0652812D18BE1C4
:1053B000702873D008DC6728F1D069286FD06E2878
:1053C0000DD06F2806D1ACE073282CD0752874D08E
:1053D000782853D05246179990476D1C54E1C4F376
:1053E0000250022809D003280DD0D8F80010042854
:1053F0000DD00D6008F1040846E1D8F80010EA1756
:10540000C1E90052F6E7D8F800100D80F2E70D7000
:10541000F0E718F8041B8DF8001000208DF801004B
:10542000EB46012003E058F804BB4FF0FF30610762
:105430004FF0000102D40DE009F101018946B942A3
:105440000FDA8145F8DB1BF809100029F4D108E0D8
:1054500009F1010189468142FADB1BF80910002994
:10546000F6D103985346A0EB090721463846179A10
:1054700000F080FA284400EB090507E044E008E169
:105480000DE01BF8010B524617999047B9F101093D
:10549000F7D2534621463846179AF2E039E00A21FE
:1054A000C4F302524FF0000B0091022A06D058F8C4
:1054B000040BC117032A09D00AE023E008F1070012
:1054C00020F00702F2E80201904605E000B2C117A1
:1054D000042A01D140B2C117002906DA0A46002188
:1054E000404261EB02012D2202E0220504D52B226D
:1054F0008DF80420012203E0E20701D02022F7E723
:10550000914657E00A2100E010214FF0000B009176
:105510000BE010214FF0000B44F004040827009129
:1055200003E008204FF0000B0090C4F30252022A5F
:1055300005D058F8040B0021032A08D008E008F130
:10554000070020F00702F2E80201904603E080B273
:10555000042A00D1C0B24FF0000922072AD53278C0
:10556000702A07D0DDF800C08CF0100C5CEA0B0C40
:1055700005D00EE040228DF80420012208E050EA18
:10558000010306D030238DF804308DF80520022267
:105590009146009B83F0080353EA0B030AD150EABB
:1055A000010201D1620705D530228DF804204FF0A9
:1055B00001097F1E3278582A04D039A20C920CAA15
:1055C00002920BE03BA2F9E75B46009AFAF774FF00
:1055D0000C9B9B5C029A521E0292137050EA0102CD
:1055E000F2D1029804A9081A00F1200B600702D535
:1055F00024F4803400E001275F4502DDA7EB0B00B7
:1056000000E0002000EB0B01009003984944401A91
:105610000390E00306D453462146179A039800F0FE
:10562000A9F90544002706E001A85246C05D179974
:1056300090476D1C7F1C4F45F6DBE0030CD55346AD
:105640002146179A039800F095F9054404E03020AC
:105650005246179990476D1C0099481E00900029EA
:10566000F5DC08E00298029952460078491C029144
:10567000179990476D1CBBF10001ABF1010BF1DCF8
:105680005BE100F065F90544761C307800287FF472
:105690000DAE19B02846BDE8F08F000009280100C2
:1056A0003031323334353637383961626364656698
:1056B000000000003031323334353637383941425A
:1056C0004344454600000000600700D4062708F167
:1056D000070020F00700F0E80223804603F0004CAA
:1056E0005FEA0C0001D097A009E0200501D596A043
:1056F00005E0E00701D095A001E0AFF24C00139067
:10570000307823F0004365280CD006DC452809D00A
:1057100046281DD047287FD13BE0662818D067284F
:105720007AD136E00021112F01DB112000E0781C36
:10573000CDE9000104A90CA8FFF7EEFCDDE90D019D
:105740000C9A4FF0000B07F10109109200914EE006
:105750004FF000400097CDE9011004A90CA8FFF715
:10576000DBFCDDE90D020C9B0F994FF0000B91461D
:105770001093009211B9791C00EB0109B7EB0900F5
:1057800003D4C0F1FF3B07F10109A9EB0700019029
:1057900042E0012F00DA01270021112F01DD112045
:1057A00000E03846CDE9000104A90CA8FFF7B4FCDD
:1057B000DDE90D010C9A00914FF0000BB9461092F3
:1057C00021070FD4009A4A4503DA914601E0A9F176
:1057D0000109B9F1010F05DD109AA9F10101515C30
:1057E0003029F4D0B84202DA10F1040F03DA0121B3
:1057F000CDE9011010E0002803DC8344A9EB00018F
:1058000002E0411C494500DD8946A0EB0B00401C2D
:1058100001904FF000400290200705D401984845C0
:1058200002DB4FF0FF30019000208DF84B00029812
:105830000DF14B07B0F1004F25D002200C902B202A
:105840000D90029800280CDA404202902D200D9015
:1058500007E00A210298FAF719FE3031029007F8A2
:10586000011D0C99481E0C900029F2DC02980028BA
:10587000EFD1791E0D980870307800F0200040F0CC
:10588000450007F8020D11A8C01BC01D0290139817
:10589000007800B1012000EB0901019801EBE071F3
:1058A000029801440398401A401E0390E00306D476
:1058B00053462146179A039800F05CF80544139864
:1058C000007818B15246179990476D1CE00323D514
:1058D00053462146179A039800F04CF805441BE004
:1058E000BBF1000F07DB0098584504DD10981799AD
:1058F00010F80B0001E017993020524690470198AC
:105900000BF1010B401E05F10105019004D12E2081
:105910005246179990476D1CB9F10001A9F1010990
:10592000DEDC05E017F8010B5246179990476D1C15
:105930000299481E02900029F4DC53462146179A2A
:1059400003989EE62D0000002B00000020000000C0
:105950002DE9F041044600251E461746880404D46C
:1059600005E039462020B0476D1C641EF9D5284655
:10597000BDE8F0812DE9F041044600251E46904621
:10598000C80301D5302700E02027880404D505E0AE
:1059900041463846B0476D1C641EF9D52846BDE81F
:1059A000F081000010B504466FF00400FDF7E4FA42
:1059B000E11704EB5171C1F3C701074A117010469A
:1059C000007800EB4001C1EBC0104FF6FF7101EA17
:1059D000C0000249088010BD42010020440100209F
:1059E00070B504464FF4077094FBF0F0C6B24FF464
:1059F000077094FBF0F100FB114085B205E04FF415
:105A0000077000F02FF8701EC6B2002EF7D115B146
:105A1000284600F027F870BD0146114A12784A4323
:105A20004FF0E0235A6100229A611A46126942F04F
:105A300001021A6100BF4FF0E022106900F001027C
:105A40001AB100F48032002AF5D04FF0E02212693A
:105A500022F001024FF0E0231A6100229A617047A0
:105A6000420100200146114A12884A434FF0E023C8
:105A70005A6100229A611A46126942F001021A61C3
:105A800000BF4FF0E022106900F001021AB100F4EB
:105A90008032002AF5D04FF0E022126922F0010294
:105AA0004FF0E0231A6100229A6170474401002000
:105AB000014600BF00BF0029FDD000BFC868886054
:105AC00000200861486188617047014600BF00BF3F
:105AD0000029FDD000BF086908B9012070470020E7
